{
  "contractName": "Callee",
  "abi": [
    {
      "inputs": [
        {
          "internalType": "uint256",
          "name": "",
          "type": "uint256"
        }
      ],
      "name": "values",
      "outputs": [
        {
          "internalType": "uint256",
          "name": "",
          "type": "uint256"
        }
      ],
      "stateMutability": "view",
      "type": "function",
      "constant": true
    },
    {
      "inputs": [
        {
          "internalType": "uint256",
          "name": "initial",
          "type": "uint256"
        }
      ],
      "name": "getValue",
      "outputs": [
        {
          "internalType": "uint256",
          "name": "",
          "type": "uint256"
        }
      ],
      "stateMutability": "pure",
      "type": "function",
      "constant": true
    },
    {
      "inputs": [
        {
          "internalType": "uint256",
          "name": "value",
          "type": "uint256"
        }
      ],
      "name": "storeValue",
      "outputs": [],
      "stateMutability": "nonpayable",
      "type": "function"
    },
    {
      "inputs": [],
      "name": "getValues",
      "outputs": [
        {
          "internalType": "uint256",
          "name": "",
          "type": "uint256"
        }
      ],
      "stateMutability": "view",
      "type": "function",
      "constant": true
    }
  ],
  "bytecode": "0x608060405234801561001057600080fd5b506102a1806100206000396000f3fe608060405234801561001057600080fd5b506004361061004c5760003560e01c80630ff4c9161461005157806319eb4a90146100815780635e383d211461009f5780637221a26a146100cf575b600080fd5b61006b60048036038101906100669190610172565b6100eb565b60405161007891906101aa565b60405180910390f35b610089610101565b60405161009691906101aa565b60405180910390f35b6100b960048036038101906100b49190610172565b61010d565b6040516100c691906101aa565b60405180910390f35b6100e960048036038101906100e49190610172565b610131565b005b60006096826100fa91906101c5565b9050919050565b60008080549050905090565b6000818154811061011d57600080fd5b906000526020600020016000915090505481565b600081908060018154018082558091505060019003906000526020600020016000909190919091505550565b60008135905061016c81610254565b92915050565b60006020828403121561018457600080fd5b60006101928482850161015d565b91505092915050565b6101a48161021b565b82525050565b60006020820190506101bf600083018461019b565b92915050565b60006101d08261021b565b91506101db8361021b565b9250827fffffffffffffffffffffffffffffffffffffffffffffffffffffffffffffffff038211156102105761020f610225565b5b828201905092915050565b6000819050919050565b7f4e487b7100000000000000000000000000000000000000000000000000000000600052601160045260246000fd5b61025d8161021b565b811461026857600080fd5b5056fea264697066735822122073899717ebc2c4aca92c1f1b4ab10b5863fac6710172e3c858915f7b01f32c8c64736f6c63430008040033",
  "immutableReferences": {},
  "source": "// SPDX-License-Identifier: MIT\r\npragma solidity ^0.8.4;\r\n\r\ncontract Callee { \r\n    uint[] public values; \r\n\r\n    function getValue(uint initial) public pure returns(uint) {\r\n        return initial + 150; \r\n    } \r\n\r\n    function storeValue(uint value) public {\r\n        values.push(value); \r\n    }\r\n    \r\n    function getValues() public view returns(uint) { \r\n        return values.length; \r\n    } \r\n}\r\n",
  "sourcePath": "C:/Users/FFSANT/Documents/GitHub/ethereum/contracts/Callee.sol",
  "compiler": {
    "name": "solc",
    "version": "0.8.4+commit.c7e474f2.Emscripten.clang"
  },
  "schemaVersion": "3.3.4",
  "updatedAt": "2021-05-05T01:31:43.022Z",
  "networkType": "ethereum",
  "devdoc": {
    "kind": "dev",
    "methods": {},
    "version": 1
  },
  "userdoc": {
    "kind": "user",
    "methods": {},
    "version": 1
  }
}