{
  "contractName": "Caller",
  "abi": [
    {
      "inputs": [
        {
          "internalType": "address",
          "name": "addr",
          "type": "address"
        }
      ],
      "name": "someAction",
      "outputs": [
        {
          "internalType": "uint256",
          "name": "",
          "type": "uint256"
        }
      ],
      "stateMutability": "nonpayable",
      "type": "function"
    },
    {
      "inputs": [
        {
          "internalType": "address",
          "name": "addr",
          "type": "address"
        }
      ],
      "name": "storeAction",
      "outputs": [
        {
          "internalType": "uint256",
          "name": "",
          "type": "uint256"
        }
      ],
      "stateMutability": "nonpayable",
      "type": "function"
    }
  ],
  "bytecode": "0x608060405234801561001057600080fd5b506103b1806100206000396000f3fe608060405234801561001057600080fd5b50600436106100365760003560e01c8063e8a622351461003b578063fba9cea91461006b575b600080fd5b61005560048036038101906100509190610259565b61009b565b60405161006291906102e4565b60405180910390f35b61008560048036038101906100809190610259565b610195565b60405161009291906102e4565b60405180910390f35b6000808290508073ffffffffffffffffffffffffffffffffffffffff16637221a26a60646040518263ffffffff1660e01b81526004016100db91906102c9565b600060405180830381600087803b1580156100f557600080fd5b505af1158015610109573d6000803e3d6000fd5b505050508073ffffffffffffffffffffffffffffffffffffffff166319eb4a906040518163ffffffff1660e01b8152600401602060405180830381600087803b15801561015557600080fd5b505af1158015610169573d6000803e3d6000fd5b505050506040513d601f19601f8201168201806040525081019061018d9190610282565b915050919050565b6000808290508073ffffffffffffffffffffffffffffffffffffffff16630ff4c91660646040518263ffffffff1660e01b81526004016101d591906102c9565b602060405180830381600087803b1580156101ef57600080fd5b505af1158015610203573d6000803e3d6000fd5b505050506040513d601f19601f820116820180604052508101906102279190610282565b915050919050565b60008135905061023e8161034d565b92915050565b60008151905061025381610364565b92915050565b60006020828403121561026b57600080fd5b60006102798482850161022f565b91505092915050565b60006020828403121561029457600080fd5b60006102a284828501610244565b91505092915050565b6102b48161033b565b82525050565b6102c381610331565b82525050565b60006020820190506102de60008301846102ab565b92915050565b60006020820190506102f960008301846102ba565b92915050565b600061030a82610311565b9050919050565b600073ffffffffffffffffffffffffffffffffffffffff82169050919050565b6000819050919050565b600061034682610331565b9050919050565b610356816102ff565b811461036157600080fd5b50565b61036d81610331565b811461037857600080fd5b5056fea26469706673582212201b0e9b8b10e12ce3fab4d3f33e4ca3a7e56af5c8e4974f348fc9df9f7d3e895b64736f6c63430008040033",
  "immutableReferences": {},
  "source": "// SPDX-License-Identifier: MIT\r\npragma solidity ^0.8.4; \r\n\r\ncontract Caller {\r\n\r\n    function someAction(address addr) public returns(uint) {\r\n        Callee c = Callee(addr); \r\n        return c.getValue(100); \r\n    } \r\n    \r\n    function storeAction(address addr) public returns(uint) {\r\n        Callee c = Callee(addr);\r\n        c.storeValue(100);\r\n        return c.getValues(); \r\n    }\r\n    \r\n    /*function someUnsafeAction(address addr) public {\r\n       addr.call(bytes4(keccak256(\"storeValue(uint256)\")), 100); \r\n    }*/\r\n\r\n}\r\n    \r\n    abstract contract Callee {\r\n        function getValue(uint initialValue) public virtual returns(uint);\r\n        function storeValue(uint value) public virtual;\r\n        function getValues() public virtual returns(uint) ;\r\n    } ",
  "sourcePath": "C:/Users/FFSANT/Documents/GitHub/ethereum/contracts/Caller.sol",
  "compiler": {
    "name": "solc",
    "version": "0.8.4+commit.c7e474f2.Emscripten.clang"
  },
  "schemaVersion": "3.3.4",
  "updatedAt": "2021-05-05T01:31:43.026Z",
  "networkType": "ethereum",
  "devdoc": {
    "kind": "dev",
    "methods": {},
    "version": 1
  },
  "userdoc": {
    "kind": "user",
    "methods": {},
    "version": 1
  }
}