{
  "contractName": "Counter",
  "abi": [
    {
      "inputs": [],
      "name": "count",
      "outputs": [
        {
          "internalType": "uint256",
          "name": "",
          "type": "uint256"
        }
      ],
      "stateMutability": "view",
      "type": "function",
      "constant": true
    },
    {
      "inputs": [],
      "name": "increment",
      "outputs": [],
      "stateMutability": "nonpayable",
      "type": "function"
    },
    {
      "inputs": [],
      "name": "getCount",
      "outputs": [
        {
          "internalType": "uint256",
          "name": "",
          "type": "uint256"
        }
      ],
      "stateMutability": "view",
      "type": "function",
      "constant": true
    }
  ],
  "bytecode": "0x60806040526000805534801561001457600080fd5b506101a5806100246000396000f3fe608060405234801561001057600080fd5b50600436106100415760003560e01c806306661abd14610046578063a87d942c14610064578063d09de08a14610082575b600080fd5b61004e61008c565b60405161005b91906100c5565b60405180910390f35b61006c610092565b60405161007991906100c5565b60405180910390f35b61008a61009b565b005b60005481565b60008054905090565b60016000808282546100ad91906100e0565b92505081905550565b6100bf81610136565b82525050565b60006020820190506100da60008301846100b6565b92915050565b60006100eb82610136565b91506100f683610136565b9250827fffffffffffffffffffffffffffffffffffffffffffffffffffffffffffffffff0382111561012b5761012a610140565b5b828201905092915050565b6000819050919050565b7f4e487b7100000000000000000000000000000000000000000000000000000000600052601160045260246000fdfea2646970667358221220b9092259a03e20524a0dec666bd863eb63c5890661a4b7c9508a16c87c3ec7d064736f6c63430008040033",
  "immutableReferences": {},
  "source": "// SPDX-License-Identifier: MIT\r\npragma solidity ^0.8.4;\r\n\r\ncontract Counter {\r\n\r\n    // Public variable of type unsigned int to keep the number of counts\r\n    uint256 public count = 0;\r\n\r\n    // Function that increments our counter\r\n    function increment() public {\r\n        count += 1;\r\n    }\r\n\r\n    // Not necessary getter to get the count value\r\n    function getCount() public view returns (uint256) {\r\n        return count;\r\n    }\r\n\r\n}\r\n",
  "sourcePath": "C:/Users/FFSANT/Documents/GitHub/ethereum/contracts/Counter.sol",
  "compiler": {
    "name": "solc",
    "version": "0.8.4+commit.c7e474f2.Emscripten.clang"
  },
  "schemaVersion": "3.3.4",
  "updatedAt": "2021-05-05T01:31:43.041Z",
  "networkType": "ethereum",
  "devdoc": {
    "kind": "dev",
    "methods": {},
    "version": 1
  },
  "userdoc": {
    "kind": "user",
    "methods": {},
    "version": 1
  }
}