{
  "contractName": "Mastering_Blockchain_Guestbook",
  "abi": [
    {
      "inputs": [],
      "stateMutability": "nonpayable",
      "type": "constructor"
    },
    {
      "inputs": [
        {
          "internalType": "string",
          "name": "_messagefromreader",
          "type": "string"
        }
      ],
      "name": "setmessagefromreader",
      "outputs": [],
      "stateMutability": "nonpayable",
      "type": "function"
    },
    {
      "inputs": [
        {
          "internalType": "uint256",
          "name": "_bookentrynumber",
          "type": "uint256"
        }
      ],
      "name": "getmessagefromreader",
      "outputs": [
        {
          "internalType": "string",
          "name": "_messagefromreader",
          "type": "string"
        }
      ],
      "stateMutability": "view",
      "type": "function"
    },
    {
      "inputs": [],
      "name": "getnumberofmessagesfromreaders",
      "outputs": [
        {
          "internalType": "uint256",
          "name": "_numberofmessages",
          "type": "uint256"
        }
      ],
      "stateMutability": "view",
      "type": "function"
    },
    {
      "inputs": [
        {
          "internalType": "string",
          "name": "_messagefromauthors",
          "type": "string"
        }
      ],
      "name": "setmessagefromauthors",
      "outputs": [],
      "stateMutability": "nonpayable",
      "type": "function"
    },
    {
      "inputs": [],
      "name": "getmessagefromauthors",
      "outputs": [
        {
          "internalType": "string",
          "name": "_name",
          "type": "string"
        }
      ],
      "stateMutability": "view",
      "type": "function"
    }
  ],
  "bytecode": "0x608060405234801561001057600080fd5b50336000806101000a81548173ffffffffffffffffffffffffffffffffffffffff021916908373ffffffffffffffffffffffffffffffffffffffff160217905550600060038190555061075c806100686000396000f3fe608060405234801561001057600080fd5b50600436106100575760003560e01c806350b46b001461005c578063b44556c51461008c578063c6519f46146100aa578063e4cb814b146100c8578063fa6615c3146100e4575b600080fd5b61007660048036038101906100719190610459565b610100565b60405161008391906104ca565b60405180910390f35b6100946101a5565b6040516100a191906104ec565b60405180910390f35b6100b26101af565b6040516100bf91906104ca565b60405180910390f35b6100e260048036038101906100dd9190610418565b610241565b005b6100fe60048036038101906100f99190610418565b610286565b005b6060600260008381526020019081526020016000208054610120906105c5565b80601f016020809104026020016040519081016040528092919081815260200182805461014c906105c5565b80156101995780601f1061016e57610100808354040283529160200191610199565b820191906000526020600020905b81548152906001019060200180831161017c57829003601f168201915b50505050509050919050565b6000600354905090565b6060600180546101be906105c5565b80601f01602080910402602001604051908101604052809291908181526020018280546101ea906105c5565b80156102375780601f1061020c57610100808354040283529160200191610237565b820191906000526020600020905b81548152906001019060200180831161021a57829003601f168201915b5050505050905090565b80600260006003548152602001908152602001600020908051906020019061026a9291906102f8565b506003600081548092919061027e90610628565b919050555050565b3373ffffffffffffffffffffffffffffffffffffffff1660008054906101000a900473ffffffffffffffffffffffffffffffffffffffff1673ffffffffffffffffffffffffffffffffffffffff16146102de57600080fd5b80600190805190602001906102f49291906102f8565b5050565b828054610304906105c5565b90600052602060002090601f016020900481019282610326576000855561036d565b82601f1061033f57805160ff191683800117855561036d565b8280016001018555821561036d579182015b8281111561036c578251825591602001919060010190610351565b5b50905061037a919061037e565b5090565b5b8082111561039757600081600090555060010161037f565b5090565b60006103ae6103a98461052c565b610507565b9050828152602081018484840111156103c657600080fd5b6103d1848285610583565b509392505050565b600082601f8301126103ea57600080fd5b81356103fa84826020860161039b565b91505092915050565b6000813590506104128161070f565b92915050565b60006020828403121561042a57600080fd5b600082013567ffffffffffffffff81111561044457600080fd5b610450848285016103d9565b91505092915050565b60006020828403121561046b57600080fd5b600061047984828501610403565b91505092915050565b600061048d8261055d565b6104978185610568565b93506104a7818560208601610592565b6104b0816106fe565b840191505092915050565b6104c481610579565b82525050565b600060208201905081810360008301526104e48184610482565b905092915050565b600060208201905061050160008301846104bb565b92915050565b6000610511610522565b905061051d82826105f7565b919050565b6000604051905090565b600067ffffffffffffffff821115610547576105466106cf565b5b610550826106fe565b9050602081019050919050565b600081519050919050565b600082825260208201905092915050565b6000819050919050565b82818337600083830152505050565b60005b838110156105b0578082015181840152602081019050610595565b838111156105bf576000848401525b50505050565b600060028204905060018216806105dd57607f821691505b602082108114156105f1576105f06106a0565b5b50919050565b610600826106fe565b810181811067ffffffffffffffff8211171561061f5761061e6106cf565b5b80604052505050565b600061063382610579565b91507fffffffffffffffffffffffffffffffffffffffffffffffffffffffffffffffff82141561066657610665610671565b5b600182019050919050565b7f4e487b7100000000000000000000000000000000000000000000000000000000600052601160045260246000fd5b7f4e487b7100000000000000000000000000000000000000000000000000000000600052602260045260246000fd5b7f4e487b7100000000000000000000000000000000000000000000000000000000600052604160045260246000fd5b6000601f19601f8301169050919050565b61071881610579565b811461072357600080fd5b5056fea2646970667358221220b81e6b0b7b0a5ddeebe0ddd26f955ee63098369c124e62a275e282e74b402c7c64736f6c63430008040033",
  "immutableReferences": {},
  "source": "// SPDX-License-Identifier: GPL-3.0\npragma solidity ^0.8.4;\n\ncontract Mastering_Blockchain_Guestbook {\n\n  address private owner;\n  string private messagefromauthors;\n  mapping (uint256 => string) private guestbookmessage;\n  uint256 private bookcounter;\n\n constructor () {\n    owner = msg.sender;    \n    bookcounter = 0;\n  }\n\n  /* Modifiers */\n  /* Require the address interacting with the smart contract is the same as the owner address*/\n  modifier onlyOwner() {\n    require(owner == msg.sender);\n    _;\n  }\n\n  /* Add New Message From Readers, anyone can set */\n  function setmessagefromreader (string memory _messagefromreader) public {\n    guestbookmessage[bookcounter] = _messagefromreader;\n    bookcounter ++;\n  }\n\n  /*get message from reader*/  \n  function getmessagefromreader(uint256 _bookentrynumber) public view returns (string memory _messagefromreader) {\n    return guestbookmessage[_bookentrynumber];\n  }\n\n  /*get total number of messages from reader*/\n  function getnumberofmessagesfromreaders() public view returns (uint256 _numberofmessages) {\n    return bookcounter;\n  }\n\n  /* Set Message From Authors, only contract owner can set */\n  function setmessagefromauthors (string memory _messagefromauthors) onlyOwner() public {\n    messagefromauthors = _messagefromauthors;\n  }\n\n  /*get message from authors*/\n  function getmessagefromauthors() public view returns (string memory _name) {\n    return messagefromauthors;\n  }\n\n\n}",
  "sourcePath": "C:/Users/FFSANT/Documents/GitHub/ethereum/contracts/Guestbook.sol",
  "compiler": {
    "name": "solc",
    "version": "0.8.4+commit.c7e474f2.Emscripten.clang"
  },
  "schemaVersion": "3.3.4",
  "updatedAt": "2021-04-24T22:49:22.425Z",
  "devdoc": {
    "kind": "dev",
    "methods": {},
    "version": 1
  },
  "userdoc": {
    "kind": "user",
    "methods": {},
    "version": 1
  }
}